:020000040000FA
:10000000B201C528A501A400B3172730A300103002
:1000100015200330A300E8301520A301643015201B
:10002000A3010A30152024082028A2002508A100D9
:100030002408A0008E202008031DB313B31B080062
:10004000303EA70009110910091083160911091083
:100050000910880183122708B21849283A30A100F4
:10006000FC3073203330A6005C201030A1006830D3
:1000700073205C20643072205C20383048200C30C3
:1000800048200130482006304820B214270849286B
:100090003214A600321C57280910033C031C5C28AC
:1000A0005C200730A100D030732003140800321404
:1000B000FE3C0319C02809140915260888003210CF
:1000C00009113230722003140800A301A200FF308E
:1000D000A207031CA307031CC0280330A100DF30C4
:1000E00073206728A101E83EA000A109FC30031C91
:1000F0007C28A00703187928A0076400A10F79289D
:1001000020188228A01C86280000862808000038B5
:10011000031DFF300405031DFF30C028A501A40105
:100120001030A600210DA40DA50D2208A40223085D
:10013000031C230FA5020318A4282208A4072308E0
:100140000318230FA5070310A00DA10DA60B9228DD
:100150002008C0281030A800A101A001A70CA60CFF
:10016000031CB8282208A00723080318230FA1079F
:10017000A10CA00CA50CA40CA80BAE282408C02828
:1001800083130313831264000800831607309F0053
:10019000643083128A0165208316F0308600831252
:1001A00088018601BF012030BC002030BE00203015
:1001B000BD00061486100611861164008A110A1209
:1001C000061EE4280730BC0064008A110A12861E4D
:1001D000EB280830BC0064008A110A12061FF228BE
:1001E0000930BC0064008A110A12861F04292F30CE
:1001F000BD003C08BE002030BC0064008A110A1219
:10020000861F04298A01FD2806108614061186110E
:1002100064008A110A12061E0F290430BC00640013
:100220008A110A12861E16290530BC0064008A1144
:100230000A12061F1D290630BC0064008A110A122A
:10024000861F2F292A30BD003C08BE002030BC008C
:1002500064008A110A12861F2F298A012829061094
:1002600086100615861164008A110A12061E3A29A4
:100270000130BC0064008A110A12861E4129023036
:10028000BC0064008A110A12061F48290330BC0012
:1002900064008A110A12861F5A292D30BD003C08BD
:1002A000BE002030BC0064008A110A12861F5A2941
:1002B0008A015329061086100611861564008A11DA
:1002C0000A12861E6429BC0164008A110A12061FE4
:1002D0006C298A110A12F12964008A110A12861FF8
:1002E0007E292B30BD003C08BE002030BC006400DD
:1002F0008A110A12861F7E298A0177293C08203C30
:10030000031DFF30B8003D08203C031DFF30FF3ABD
:10031000BA00380884003A088A018720BA00BB0076
:1003200064003A083B048A110A120319A029FE301E
:100330008A01212001308A0121203C088A01022003
:100340003C08203C031DFF30FF3AB8003D08203C2C
:10035000031DFF30BA00380884003A088A0187205C
:10036000BA00BB0064003A083B048A110A12031960
:10037000C529FE308A01212001308A0121203E0852
:100380008A0102203D088A0121203C08203C031DEF
:10039000FF30B8003D08203C031DFF30BA0038088C
:1003A00084003A088A018720BA00BB0064003A083A
:1003B0003B048A110A120319EC29FE308A0121201C
:1003C00001308A0121203E088A0102203D088A016D
:1003D00021203C088A01022064308A0165208A01BC
:1003E000D92864003D082F3C8A110A12031D252AD2
:1003F00064003C08003C8A110A12031D192AFE30D1
:100400008A01212001308A01212048308A012120DF
:1004100041308A01212054308A01212041308A0153
:10042000212064308A0165208A01D9288A110A12A4
:10043000222A3E08A000A1013C08A200A3018A01D3
:100440008E20C0008A110A125E2A64003D082A3CF0
:100450008A110A12031D382A3E08A600A7013C088B
:10046000A200A3018A01AA20C0008A110A125E2AF2
:1004700064003D082D3C8A110A12031D542A6400B1
:100480003E083C028A110A1203184C2A3C083E021C
:10049000C0008A110A12512A3E083C02C0000130F5
:1004A000BF008A110A125E2A64003D082B3C8A11A3
:1004B0000A12031D5E2A3E083C07C00064003F0884
:1004C000013C8A110A12031D832AFE308A01212071
:1004D00001308A0121203E088A0102203D088A015C
:1004E00021203C088A0102203D308A012120203051
:1004F0008A0121202D308A01212040088A01022012
:100500008A110A12982AFE308A01212001308A01BC
:1005100021203E088A0102203D088A0121203C0852
:100520008A0102203D308A01212040088A010220F0
:1005300064308A01652064008A110A12061EAF2AFF
:100540002030BC002030BD002030BE00FE308A01CB
:10055000212001308A012120BF018A01D9288A0186
:02056000F1297F
:02400E00753FFC
:00000001FF
